{
  "contractName": "GenesisVisionGateway",
  "abi": [
    {
      "anonymous": false,
      "inputs": [
        {
          "indexed": false,
          "internalType": "string",
          "name": "assetId",
          "type": "string"
        },
        {
          "indexed": false,
          "internalType": "enum GenesisVisionGateway.AssetType",
          "name": "assetType",
          "type": "uint8"
        }
      ],
      "name": "AssetAdded",
      "type": "event"
    },
    {
      "anonymous": false,
      "inputs": [
        {
          "indexed": false,
          "internalType": "string",
          "name": "assetId",
          "type": "string"
        }
      ],
      "name": "AssetRemoved",
      "type": "event"
    },
    {
      "anonymous": false,
      "inputs": [
        {
          "indexed": false,
          "internalType": "uint256",
          "name": "requestIndex",
          "type": "uint256"
        },
        {
          "indexed": false,
          "internalType": "enum GenesisVisionGateway.RequestStatus",
          "name": "newStatus",
          "type": "uint8"
        }
      ],
      "name": "InvestRequestNewStatus",
      "type": "event"
    },
    {
      "anonymous": false,
      "inputs": [
        {
          "indexed": true,
          "internalType": "address",
          "name": "previousAdmin",
          "type": "address"
        },
        {
          "indexed": true,
          "internalType": "address",
          "name": "newAdmin",
          "type": "address"
        }
      ],
      "name": "NewAdmin",
      "type": "event"
    },
    {
      "anonymous": false,
      "inputs": [
        {
          "indexed": false,
          "internalType": "string",
          "name": "assetId",
          "type": "string"
        },
        {
          "indexed": false,
          "internalType": "address",
          "name": "addr",
          "type": "address"
        },
        {
          "indexed": false,
          "internalType": "uint256",
          "name": "amount",
          "type": "uint256"
        },
        {
          "indexed": false,
          "internalType": "uint256",
          "name": "index",
          "type": "uint256"
        }
      ],
      "name": "NewInvestRequest",
      "type": "event"
    },
    {
      "anonymous": false,
      "inputs": [
        {
          "indexed": true,
          "internalType": "address",
          "name": "previousOperator",
          "type": "address"
        },
        {
          "indexed": true,
          "internalType": "address",
          "name": "newOperator",
          "type": "address"
        }
      ],
      "name": "NewOperator",
      "type": "event"
    },
    {
      "anonymous": false,
      "inputs": [
        {
          "indexed": false,
          "internalType": "string",
          "name": "assetId",
          "type": "string"
        },
        {
          "indexed": false,
          "internalType": "address",
          "name": "addr",
          "type": "address"
        },
        {
          "indexed": false,
          "internalType": "uint8",
          "name": "percent",
          "type": "uint8"
        },
        {
          "indexed": false,
          "internalType": "uint256",
          "name": "index",
          "type": "uint256"
        }
      ],
      "name": "NewWithdrawalRequest",
      "type": "event"
    },
    {
      "inputs": [
        {
          "internalType": "string",
          "name": "",
          "type": "string"
        }
      ],
      "name": "assets",
      "outputs": [
        {
          "internalType": "string",
          "name": "id",
          "type": "string"
        },
        {
          "internalType": "enum GenesisVisionGateway.AssetType",
          "name": "assetType",
          "type": "uint8"
        }
      ],
      "stateMutability": "view",
      "type": "function"
    },
    {
      "inputs": [
        {
          "internalType": "address",
          "name": "",
          "type": "address"
        }
      ],
      "name": "availableForWithdrawal",
      "outputs": [
        {
          "internalType": "uint256",
          "name": "",
          "type": "uint256"
        }
      ],
      "stateMutability": "view",
      "type": "function"
    },
    {
      "inputs": [],
      "name": "getAdmin",
      "outputs": [
        {
          "internalType": "address",
          "name": "",
          "type": "address"
        }
      ],
      "stateMutability": "view",
      "type": "function"
    },
    {
      "inputs": [],
      "name": "getOperator",
      "outputs": [
        {
          "internalType": "address",
          "name": "",
          "type": "address"
        }
      ],
      "stateMutability": "view",
      "type": "function"
    },
    {
      "inputs": [
        {
          "internalType": "address",
          "name": "newAdmin",
          "type": "address"
        }
      ],
      "name": "setAdmin",
      "outputs": [],
      "stateMutability": "nonpayable",
      "type": "function"
    },
    {
      "inputs": [
        {
          "internalType": "address",
          "name": "newOperator",
          "type": "address"
        }
      ],
      "name": "setOperator",
      "outputs": [],
      "stateMutability": "nonpayable",
      "type": "function"
    },
    {
      "inputs": [
        {
          "internalType": "string",
          "name": "assetId",
          "type": "string"
        },
        {
          "internalType": "enum GenesisVisionGateway.AssetType",
          "name": "assetType",
          "type": "uint8"
        }
      ],
      "name": "addAsset",
      "outputs": [],
      "stateMutability": "nonpayable",
      "type": "function"
    },
    {
      "inputs": [
        {
          "internalType": "string",
          "name": "assetId",
          "type": "string"
        }
      ],
      "name": "removeAsset",
      "outputs": [],
      "stateMutability": "nonpayable",
      "type": "function"
    },
    {
      "inputs": [
        {
          "internalType": "string",
          "name": "assetId",
          "type": "string"
        }
      ],
      "name": "investRequest",
      "outputs": [],
      "stateMutability": "payable",
      "type": "function"
    },
    {
      "inputs": [
        {
          "internalType": "string",
          "name": "fundId",
          "type": "string"
        },
        {
          "internalType": "uint8",
          "name": "percent",
          "type": "uint8"
        }
      ],
      "name": "withdrawalRequest",
      "outputs": [],
      "stateMutability": "nonpayable",
      "type": "function"
    },
    {
      "inputs": [
        {
          "internalType": "address",
          "name": "wallet",
          "type": "address"
        }
      ],
      "name": "setWhitelistedWallet",
      "outputs": [],
      "stateMutability": "nonpayable",
      "type": "function"
    },
    {
      "inputs": [
        {
          "internalType": "uint256",
          "name": "amount",
          "type": "uint256"
        },
        {
          "internalType": "address",
          "name": "recipient",
          "type": "address"
        }
      ],
      "name": "withdrawByAdmin",
      "outputs": [],
      "stateMutability": "nonpayable",
      "type": "function"
    },
    {
      "inputs": [
        {
          "internalType": "uint256",
          "name": "amount",
          "type": "uint256"
        }
      ],
      "name": "withdrawByOperator",
      "outputs": [],
      "stateMutability": "nonpayable",
      "type": "function"
    },
    {
      "inputs": [
        {
          "internalType": "uint256",
          "name": "index",
          "type": "uint256"
        }
      ],
      "name": "setInvestRequestStatusProcessed",
      "outputs": [],
      "stateMutability": "nonpayable",
      "type": "function"
    },
    {
      "inputs": [
        {
          "internalType": "uint256",
          "name": "index",
          "type": "uint256"
        }
      ],
      "name": "setInvestRequestStatusCancelled",
      "outputs": [],
      "stateMutability": "nonpayable",
      "type": "function"
    },
    {
      "inputs": [
        {
          "internalType": "uint256",
          "name": "index",
          "type": "uint256"
        },
        {
          "internalType": "uint256",
          "name": "amount",
          "type": "uint256"
        }
      ],
      "name": "setWithdrawalRequestStatusProcessed",
      "outputs": [],
      "stateMutability": "nonpayable",
      "type": "function"
    },
    {
      "inputs": [
        {
          "internalType": "uint256",
          "name": "amount",
          "type": "uint256"
        }
      ],
      "name": "withdraw",
      "outputs": [],
      "stateMutability": "nonpayable",
      "type": "function"
    }
  ],
  "bytecode": "0x608060405234801561001057600080fd5b506000339050806000806101000a81548173ffffffffffffffffffffffffffffffffffffffff021916908373ffffffffffffffffffffffffffffffffffffffff1602179055508073ffffffffffffffffffffffffffffffffffffffff16600073ffffffffffffffffffffffffffffffffffffffff167ff9ffabca9c8276e99321725bcb43fb076a6c66a54b7f21c4e8146d8519b417dc60405160405180910390a35061246a806100c16000396000f3fe6080604052600436106100fe5760003560e01c806365c59e7d116100955780637a9a4e9e116100645780637a9a4e9e146102f85780638593622814610321578063b3ab15fb1461035f578063df8b2c6114610388578063e7f43c68146103b1576100fe565b806365c59e7d1461023e5780636e9960c31461027b578063704b6c02146102a6578063759af9ec146102cf576100fe565b80632e1a7d4d116100d15780632e1a7d4d1461019a5780633b17d5c3146101c35780634daa280b146101ec5780635b8a35f814610215576100fe565b8063033179f714610103578063109f36f31461012c5780631d9bdbe314610155578063282ba52f14610171575b600080fd5b34801561010f57600080fd5b5061012a60048036038101906101259190611b0f565b6103dc565b005b34801561013857600080fd5b50610153600480360381019061014e9190611b8c565b6105a3565b005b61016f600480360381019061016a9190611ace565b6106cc565b005b34801561017d57600080fd5b5061019860048036038101906101939190611a08565b610878565b005b3480156101a657600080fd5b506101c160048036038101906101bc9190611b63565b610931565b005b3480156101cf57600080fd5b506101ea60048036038101906101e59190611b63565b610a1d565b005b3480156101f857600080fd5b50610213600480360381019061020e9190611b63565b610bd4565b005b34801561022157600080fd5b5061023c60048036038101906102379190611bc8565b610d8b565b005b34801561024a57600080fd5b5061026560048036038101906102609190611a08565b610f95565b6040516102729190612044565b60405180910390f35b34801561028757600080fd5b50610290610fad565b60405161029d9190611e8b565b60405180910390f35b3480156102b257600080fd5b506102cd60048036038101906102c89190611a08565b610fd6565b005b3480156102db57600080fd5b506102f660048036038101906102f19190611a31565b611178565b005b34801561030457600080fd5b5061031f600480360381019061031a9190611a76565b611271565b005b34801561032d57600080fd5b5061034860048036038101906103439190611ace565b6113b1565b604051610356929190611f94565b60405180910390f35b34801561036b57600080fd5b5061038660048036038101906103819190611a08565b611480565b005b34801561039457600080fd5b506103af60048036038101906103aa9190611b63565b611625565b005b3480156103bd57600080fd5b506103c661176f565b6040516103d39190611e8b565b60405180910390f35b600060405180608001604052808481526020013373ffffffffffffffffffffffffffffffffffffffff1681526020018360ff1681526020016000600281111561044e577f4e487b7100000000000000000000000000000000000000000000000000000000600052602160045260246000fd5b8152509050806004600060065481526020019081526020016000206000820151816000019080519060200190610485929190611799565b5060208201518160010160006101000a81548173ffffffffffffffffffffffffffffffffffffffff021916908373ffffffffffffffffffffffffffffffffffffffff16021790555060408201518160010160146101000a81548160ff021916908360ff16021790555060608201518160010160156101000a81548160ff0219169083600281111561053f577f4e487b7100000000000000000000000000000000000000000000000000000000600052602160045260246000fd5b02179055509050507fbfbf84bdf854dfde7f3af0d83ba03a33dc078d89326b5295d439059b534e0bd683338460065460405161057e9493929190611f48565b60405180910390a160066000815480929190610599906122a1565b9190505550505050565b3373ffffffffffffffffffffffffffffffffffffffff166105c2610fad565b73ffffffffffffffffffffffffffffffffffffffff1614610618576040517f08c379a000000000000000000000000000000000000000000000000000000000815260040161060f90612024565b60405180910390fd5b4782111561062557600080fd5b600073ffffffffffffffffffffffffffffffffffffffff16600860009054906101000a900473ffffffffffffffffffffffffffffffffffffffff1673ffffffffffffffffffffffffffffffffffffffff16141561068157600080fd5b8073ffffffffffffffffffffffffffffffffffffffff166108fc839081150290604051600060405180830381858888f193505050501580156106c7573d6000803e3d6000fd5b505050565b600060405180608001604052808381526020013373ffffffffffffffffffffffffffffffffffffffff1681526020013481526020016000600281111561073b577f4e487b7100000000000000000000000000000000000000000000000000000000600052602160045260246000fd5b8152509050806003600060055481526020019081526020016000206000820151816000019080519060200190610772929190611799565b5060208201518160010160006101000a81548173ffffffffffffffffffffffffffffffffffffffff021916908373ffffffffffffffffffffffffffffffffffffffff1602179055506040820151816002015560608201518160030160006101000a81548160ff02191690836002811115610815577f4e487b7100000000000000000000000000000000000000000000000000000000600052602160045260246000fd5b02179055509050507f6c328ff168cd97a2d99d52b06fb36e5eae450eb2b29bac52cedea7f586dc504b8233346005546040516108549493929190611efc565b60405180910390a16005600081548092919061086f906122a1565b91905055505050565b3373ffffffffffffffffffffffffffffffffffffffff16610897610fad565b73ffffffffffffffffffffffffffffffffffffffff16146108ed576040517f08c379a00000000000000000000000000000000000000000000000000000000081526004016108e490612024565b60405180910390fd5b80600860006101000a81548173ffffffffffffffffffffffffffffffffffffffff021916908373ffffffffffffffffffffffffffffffffffffffff16021790555050565b600760003373ffffffffffffffffffffffffffffffffffffffff1673ffffffffffffffffffffffffffffffffffffffff1681526020019081526020016000205481111561097d57600080fd5b80600760003373ffffffffffffffffffffffffffffffffffffffff1673ffffffffffffffffffffffffffffffffffffffff16815260200190815260200160002060008282546109cc9190612166565b925050819055503373ffffffffffffffffffffffffffffffffffffffff166108fc829081150290604051600060405180830381858888f19350505050158015610a19573d6000803e3d6000fd5b5050565b3373ffffffffffffffffffffffffffffffffffffffff16610a3c61176f565b73ffffffffffffffffffffffffffffffffffffffff1614610a92576040517f08c379a0000000000000000000000000000000000000000000000000000000008152600401610a8990611fe4565b60405180910390fd5b60006002811115610acc577f4e487b7100000000000000000000000000000000000000000000000000000000600052602160045260246000fd5b6003600083815260200190815260200160002060030160009054906101000a900460ff166002811115610b28577f4e487b7100000000000000000000000000000000000000000000000000000000600052602160045260246000fd5b14610b3257600080fd5b60016003600083815260200190815260200160002060030160006101000a81548160ff02191690836002811115610b92577f4e487b7100000000000000000000000000000000000000000000000000000000600052602160045260246000fd5b02179055507fe3a4fa534c0368abfb513c9d9627b206a055d86f39aff60fa3f3979e01920a6d816001604051610bc992919061205f565b60405180910390a150565b3373ffffffffffffffffffffffffffffffffffffffff16610bf361176f565b73ffffffffffffffffffffffffffffffffffffffff1614610c49576040517f08c379a0000000000000000000000000000000000000000000000000000000008152600401610c4090611fe4565b60405180910390fd5b60006002811115610c83577f4e487b7100000000000000000000000000000000000000000000000000000000600052602160045260246000fd5b6003600083815260200190815260200160002060030160009054906101000a900460ff166002811115610cdf577f4e487b7100000000000000000000000000000000000000000000000000000000600052602160045260246000fd5b14610ce957600080fd5b60026003600083815260200190815260200160002060030160006101000a81548160ff02191690836002811115610d49577f4e487b7100000000000000000000000000000000000000000000000000000000600052602160045260246000fd5b02179055507fe3a4fa534c0368abfb513c9d9627b206a055d86f39aff60fa3f3979e01920a6d816002604051610d8092919061205f565b60405180910390a150565b3373ffffffffffffffffffffffffffffffffffffffff16610daa61176f565b73ffffffffffffffffffffffffffffffffffffffff1614610e00576040517f08c379a0000000000000000000000000000000000000000000000000000000008152600401610df790611fe4565b60405180910390fd5b60006002811115610e3a577f4e487b7100000000000000000000000000000000000000000000000000000000600052602160045260246000fd5b6004600084815260200190815260200160002060010160159054906101000a900460ff166002811115610e96577f4e487b7100000000000000000000000000000000000000000000000000000000600052602160045260246000fd5b14610ea057600080fd5b60016004600084815260200190815260200160002060010160156101000a81548160ff02191690836002811115610f00577f4e487b7100000000000000000000000000000000000000000000000000000000600052602160045260246000fd5b021790555080600760006004600086815260200190815260200160002060010160009054906101000a900473ffffffffffffffffffffffffffffffffffffffff1673ffffffffffffffffffffffffffffffffffffffff1673ffffffffffffffffffffffffffffffffffffffff1681526020019081526020016000206000828254610f8a9190612110565b925050819055505050565b60076020528060005260406000206000915090505481565b60008060009054906101000a900473ffffffffffffffffffffffffffffffffffffffff16905090565b3373ffffffffffffffffffffffffffffffffffffffff16610ff5610fad565b73ffffffffffffffffffffffffffffffffffffffff161461104b576040517f08c379a000000000000000000000000000000000000000000000000000000000815260040161104290612024565b60405180910390fd5b600073ffffffffffffffffffffffffffffffffffffffff168173ffffffffffffffffffffffffffffffffffffffff1614156110bb576040517f08c379a00000000000000000000000000000000000000000000000000000000081526004016110b290612004565b60405180910390fd5b8073ffffffffffffffffffffffffffffffffffffffff1660008054906101000a900473ffffffffffffffffffffffffffffffffffffffff1673ffffffffffffffffffffffffffffffffffffffff167ff9ffabca9c8276e99321725bcb43fb076a6c66a54b7f21c4e8146d8519b417dc60405160405180910390a3806000806101000a81548173ffffffffffffffffffffffffffffffffffffffff021916908373ffffffffffffffffffffffffffffffffffffffff16021790555050565b3373ffffffffffffffffffffffffffffffffffffffff1661119761176f565b73ffffffffffffffffffffffffffffffffffffffff16146111ed576040517f08c379a00000000000000000000000000000000000000000000000000000000081526004016111e490611fe4565b60405180910390fd5b600282826040516111ff929190611e72565b90815260200160405180910390206000808201600061121e919061181f565b6001820160006101000a81549060ff021916905550507f7704a686b2fb3541aea5ffdeb387f0119accdfafd1824299e97eb81dee7be8358282604051611265929190611ea6565b60405180910390a15050565b3373ffffffffffffffffffffffffffffffffffffffff1661129061176f565b73ffffffffffffffffffffffffffffffffffffffff16146112e6576040517f08c379a00000000000000000000000000000000000000000000000000000000081526004016112dd90611fe4565b60405180910390fd5b6000600284846040516112fa929190611e72565b90815260200160405180910390209050838382600001919061131d92919061185f565b50818160010160006101000a81548160ff0219169083600181111561136b577f4e487b7100000000000000000000000000000000000000000000000000000000600052602160045260246000fd5b02179055507fddcca68c81c9ea10615852c1db6aae9273d04a5b2c19688501f42a9de042cf6d8484846040516113a393929190611eca565b60405180910390a150505050565b6002818051602081018201805184825260208301602085012081835280955050505050506000915090508060000180546113ea9061226f565b80601f01602080910402602001604051908101604052809291908181526020018280546114169061226f565b80156114635780601f1061143857610100808354040283529160200191611463565b820191906000526020600020905b81548152906001019060200180831161144657829003601f168201915b5050505050908060010160009054906101000a900460ff16905082565b3373ffffffffffffffffffffffffffffffffffffffff1661149f610fad565b73ffffffffffffffffffffffffffffffffffffffff16146114f5576040517f08c379a00000000000000000000000000000000000000000000000000000000081526004016114ec90612024565b60405180910390fd5b600073ffffffffffffffffffffffffffffffffffffffff168173ffffffffffffffffffffffffffffffffffffffff161415611565576040517f08c379a000000000000000000000000000000000000000000000000000000000815260040161155c90611fc4565b60405180910390fd5b8073ffffffffffffffffffffffffffffffffffffffff16600160009054906101000a900473ffffffffffffffffffffffffffffffffffffffff1673ffffffffffffffffffffffffffffffffffffffff167ff1e04d73c4304b5ff164f9d10c7473e2a1593b740674a6107975e2a7001c1e5c60405160405180910390a380600160006101000a81548173ffffffffffffffffffffffffffffffffffffffff021916908373ffffffffffffffffffffffffffffffffffffffff16021790555050565b3373ffffffffffffffffffffffffffffffffffffffff16611644610fad565b73ffffffffffffffffffffffffffffffffffffffff161461169a576040517f08c379a000000000000000000000000000000000000000000000000000000000815260040161169190612024565b60405180910390fd5b478111156116a757600080fd5b600073ffffffffffffffffffffffffffffffffffffffff16600860009054906101000a900473ffffffffffffffffffffffffffffffffffffffff1673ffffffffffffffffffffffffffffffffffffffff16141561170357600080fd5b600860009054906101000a900473ffffffffffffffffffffffffffffffffffffffff1673ffffffffffffffffffffffffffffffffffffffff166108fc829081150290604051600060405180830381858888f1935050505015801561176b573d6000803e3d6000fd5b5050565b6000600160009054906101000a900473ffffffffffffffffffffffffffffffffffffffff16905090565b8280546117a59061226f565b90600052602060002090601f0160209004810192826117c7576000855561180e565b82601f106117e057805160ff191683800117855561180e565b8280016001018555821561180e579182015b8281111561180d5782518255916020019190600101906117f2565b5b50905061181b91906118e5565b5090565b50805461182b9061226f565b6000825580601f1061183d575061185c565b601f01602090049060005260206000209081019061185b91906118e5565b5b50565b82805461186b9061226f565b90600052602060002090601f01602090048101928261188d57600085556118d4565b82601f106118a657803560ff19168380011785556118d4565b828001600101855582156118d4579182015b828111156118d35782358255916020019190600101906118b8565b5b5090506118e191906118e5565b5090565b5b808211156118fe5760008160009055506001016118e6565b5090565b6000611915611910846120b9565b612088565b90508281526020810184848401111561192d57600080fd5b61193884828561222d565b509392505050565b60008135905061194f816123df565b92915050565b600081359050611964816123f6565b92915050565b60008083601f84011261197c57600080fd5b8235905067ffffffffffffffff81111561199557600080fd5b6020830191508360018202830111156119ad57600080fd5b9250929050565b600082601f8301126119c557600080fd5b81356119d5848260208601611902565b91505092915050565b6000813590506119ed81612406565b92915050565b600081359050611a028161241d565b92915050565b600060208284031215611a1a57600080fd5b6000611a2884828501611940565b91505092915050565b60008060208385031215611a4457600080fd5b600083013567ffffffffffffffff811115611a5e57600080fd5b611a6a8582860161196a565b92509250509250929050565b600080600060408486031215611a8b57600080fd5b600084013567ffffffffffffffff811115611aa557600080fd5b611ab18682870161196a565b93509350506020611ac486828701611955565b9150509250925092565b600060208284031215611ae057600080fd5b600082013567ffffffffffffffff811115611afa57600080fd5b611b06848285016119b4565b91505092915050565b60008060408385031215611b2257600080fd5b600083013567ffffffffffffffff811115611b3c57600080fd5b611b48858286016119b4565b9250506020611b59858286016119f3565b9150509250929050565b600060208284031215611b7557600080fd5b6000611b83848285016119de565b91505092915050565b60008060408385031215611b9f57600080fd5b6000611bad858286016119de565b9250506020611bbe85828601611940565b9150509250929050565b60008060408385031215611bdb57600080fd5b6000611be9858286016119de565b9250506020611bfa858286016119de565b9150509250929050565b611c0d8161219a565b82525050565b611c1c81612209565b82525050565b611c2b8161221b565b82525050565b6000611c3d83856120f4565b9350611c4a83858461222d565b611c53836123a6565b840190509392505050565b6000611c6a8385612105565b9350611c7783858461222d565b82840190509392505050565b6000611c8e826120e9565b611c9881856120f4565b9350611ca881856020860161223c565b611cb1816123a6565b840191505092915050565b6000611cc96035836120f4565b91507f41646d696e4f70657261746f724163636573733a206e6577206f70657261746f60008301527f7220697320746865207a65726f206164647265737300000000000000000000006020830152604082019050919050565b6000611d2f602f836120f4565b91507f41646d696e4f70657261746f724163636573733a2063616c6c6572206973206e60008301527f6f7420746865206f70657261746f7200000000000000000000000000000000006020830152604082019050919050565b6000611d956032836120f4565b91507f41646d696e4f70657261746f724163636573733a206e65772061646d696e206960008301527f7320746865207a65726f206164647265737300000000000000000000000000006020830152604082019050919050565b6000611dfb602c836120f4565b91507f41646d696e4f70657261746f724163636573733a2063616c6c6572206973206e60008301527f6f74207468652061646d696e00000000000000000000000000000000000000006020830152604082019050919050565b611e5d816121f2565b82525050565b611e6c816121fc565b82525050565b6000611e7f828486611c5e565b91508190509392505050565b6000602082019050611ea06000830184611c04565b92915050565b60006020820190508181036000830152611ec1818486611c31565b90509392505050565b60006040820190508181036000830152611ee5818587611c31565b9050611ef46020830184611c13565b949350505050565b60006080820190508181036000830152611f168187611c83565b9050611f256020830186611c04565b611f326040830185611e54565b611f3f6060830184611e54565b95945050505050565b60006080820190508181036000830152611f628187611c83565b9050611f716020830186611c04565b611f7e6040830185611e63565b611f8b6060830184611e54565b95945050505050565b60006040820190508181036000830152611fae8185611c83565b9050611fbd6020830184611c13565b9392505050565b60006020820190508181036000830152611fdd81611cbc565b9050919050565b60006020820190508181036000830152611ffd81611d22565b9050919050565b6000602082019050818103600083015261201d81611d88565b9050919050565b6000602082019050818103600083015261203d81611dee565b9050919050565b60006020820190506120596000830184611e54565b92915050565b60006040820190506120746000830185611e54565b6120816020830184611c22565b9392505050565b6000604051905081810181811067ffffffffffffffff821117156120af576120ae612377565b5b8060405250919050565b600067ffffffffffffffff8211156120d4576120d3612377565b5b601f19601f8301169050602081019050919050565b600081519050919050565b600082825260208201905092915050565b600081905092915050565b600061211b826121f2565b9150612126836121f2565b9250827fffffffffffffffffffffffffffffffffffffffffffffffffffffffffffffffff0382111561215b5761215a6122ea565b5b828201905092915050565b6000612171826121f2565b915061217c836121f2565b92508282101561218f5761218e6122ea565b5b828203905092915050565b60006121a5826121d2565b9050919050565b60008190506121ba826123b7565b919050565b60008190506121cd826123cb565b919050565b600073ffffffffffffffffffffffffffffffffffffffff82169050919050565b6000819050919050565b600060ff82169050919050565b6000612214826121ac565b9050919050565b6000612226826121bf565b9050919050565b82818337600083830152505050565b60005b8381101561225a57808201518184015260208101905061223f565b83811115612269576000848401525b50505050565b6000600282049050600182168061228757607f821691505b6020821081141561229b5761229a612348565b5b50919050565b60006122ac826121f2565b91507fffffffffffffffffffffffffffffffffffffffffffffffffffffffffffffffff8214156122df576122de6122ea565b5b600182019050919050565b7f4e487b7100000000000000000000000000000000000000000000000000000000600052601160045260246000fd5b7f4e487b7100000000000000000000000000000000000000000000000000000000600052602160045260246000fd5b7f4e487b7100000000000000000000000000000000000000000000000000000000600052602260045260246000fd5b7f4e487b7100000000000000000000000000000000000000000000000000000000600052604160045260246000fd5b6000601f19601f8301169050919050565b600281106123c8576123c7612319565b5b50565b600381106123dc576123db612319565b5b50565b6123e88161219a565b81146123f357600080fd5b50565b6002811061240357600080fd5b50565b61240f816121f2565b811461241a57600080fd5b50565b612426816121fc565b811461243157600080fd5b5056fea2646970667358221220dd88d91fa8b8dd79c892b734bc4dc6f04493603f7f5dd01b10eb4eb60172ebe764736f6c63430008000033",
  "immutableReferences": {},
  "source": "/*\r\n    Copyright 2021 Genesis Vision LP.\r\n\r\n    Licensed under the Apache License, Version 2.0 (the \"License\");\r\n    you may not use this file except in compliance with the License.\r\n    You may obtain a copy of the License at\r\n\r\n    http://www.apache.org/licenses/LICENSE-2.0\r\n\r\n    Unless required by applicable law or agreed to in writing, software\r\n    distributed under the License is distributed on an \"AS IS\" BASIS,\r\n    WITHOUT WARRANTIES OR CONDITIONS OF ANY KIND, either express or implied.\r\n    See the License for the specific language governing permissions and\r\n    limitations under the License.\r\n\r\n    SPDX-License-Identifier: Apache-2.0\r\n*/\r\n\r\npragma solidity ^0.8.0;\r\n\r\nimport \"../lib/AdminOperatorAccess.sol\";\r\n\r\ncontract GenesisVisionGateway is AdminOperatorAccess {\r\n\r\n    enum RequestStatus { InProcess, Processed, Cancelled }\r\n    enum AssetType { Program, Fund}\r\n\r\n    struct Asset {\r\n        string id;\r\n        AssetType assetType;\r\n    }\r\n\r\n    struct InvestRequest {\r\n        string assetId;\r\n        address addr;\r\n        uint amount;\r\n        RequestStatus status;\r\n    }\r\n\r\n    struct WithdrawalRequest {\r\n        string assetId;\r\n        address addr;\r\n        uint8 percent;\r\n        RequestStatus status;\r\n    }\r\n\r\n    event AssetAdded(string assetId, AssetType assetType);\r\n    event AssetRemoved(string assetId);\r\n\r\n    event NewInvestRequest(string assetId, address addr, uint amount, uint index);\r\n    event InvestRequestNewStatus(uint requestIndex, RequestStatus newStatus);\r\n\r\n    event NewWithdrawalRequest(string assetId, address addr, uint8 percent, uint index);\r\n\r\n    mapping(string => Asset) public assets;\r\n    mapping(uint => InvestRequest) investRequests;\r\n    mapping(uint => WithdrawalRequest) withdrawalRequests;\r\n\r\n    uint private investRequestIndex;\r\n    uint private withdrawalRequestIndex;\r\n\r\n    mapping(address => uint) public availableForWithdrawal;\r\n\r\n    address payable whitelistedWallet;\r\n\r\n    function addAsset(string calldata assetId, AssetType assetType) external onlyOperator {\r\n        Asset storage newAsset = assets[assetId];\r\n\r\n        newAsset.id = assetId;\r\n        newAsset.assetType = assetType;\r\n\r\n        emit AssetAdded(assetId, assetType);\r\n    }\r\n\r\n    function removeAsset(string calldata assetId) external onlyOperator {\r\n        delete assets[assetId];\r\n\r\n        emit AssetRemoved(assetId);\r\n    }\r\n\r\n    function investRequest(string memory assetId) public payable {\r\n        InvestRequest memory request = InvestRequest({assetId: assetId, addr: msg.sender, amount: msg.value, status: RequestStatus.InProcess });\r\n        investRequests[investRequestIndex] = request;\r\n        emit NewInvestRequest(assetId, msg.sender, msg.value, investRequestIndex);\r\n        investRequestIndex++;\r\n    }\r\n\r\n    function withdrawalRequest(string memory fundId, uint8 percent) public {\r\n        WithdrawalRequest memory request = WithdrawalRequest({assetId: fundId, addr: msg.sender, percent: percent, status: RequestStatus.InProcess });\r\n        withdrawalRequests[withdrawalRequestIndex] = request;\r\n        emit NewWithdrawalRequest(fundId, msg.sender, percent, withdrawalRequestIndex);\r\n        withdrawalRequestIndex++;\r\n    }\r\n\r\n    function setWhitelistedWallet(address wallet) public onlyAdmin {\r\n        whitelistedWallet = payable(wallet);\r\n    }\r\n\r\n    function withdrawByAdmin(uint256 amount, address recipient) public onlyAdmin {\r\n        require(amount <= address(this).balance);\r\n        require(whitelistedWallet != address(0));\r\n        payable(recipient).transfer(amount);\r\n    }\r\n\r\n    function withdrawByOperator(uint256 amount) public onlyAdmin {\r\n        require(amount <= address(this).balance);\r\n        require(whitelistedWallet != address(0));\r\n        whitelistedWallet.transfer(amount);\r\n    }\r\n\r\n    function setInvestRequestStatusProcessed(uint index) external onlyOperator {\r\n        require(investRequests[index].status == RequestStatus.InProcess);\r\n        investRequests[index].status = RequestStatus.Processed;\r\n        emit InvestRequestNewStatus(index, RequestStatus.Processed);\r\n    }\r\n    function setInvestRequestStatusCancelled(uint index) external onlyOperator {\r\n        require(investRequests[index].status == RequestStatus.InProcess);\r\n        investRequests[index].status = RequestStatus.Cancelled;\r\n        emit InvestRequestNewStatus(index, RequestStatus.Cancelled);\r\n    }\r\n\r\n    function setWithdrawalRequestStatusProcessed(uint index, uint amount) external onlyOperator {\r\n        require(withdrawalRequests[index].status == RequestStatus.InProcess);\r\n        withdrawalRequests[index].status = RequestStatus.Processed;\r\n        availableForWithdrawal[withdrawalRequests[index].addr] += amount;\r\n    }\r\n\r\n    function withdraw(uint amount) external {\r\n        require(amount <= availableForWithdrawal[msg.sender]);\r\n        availableForWithdrawal[msg.sender] -= amount;\r\n        payable(msg.sender).transfer(amount);\r\n    }\r\n}",
  "sourcePath": "C:/projects/genesis-vision-core/contracts/gateway/GenesisVisionGateway.sol",
  "compiler": {
    "name": "solc",
    "version": "0.8.0+commit.c7dfd78e.Emscripten.clang"
  },
  "schemaVersion": "3.3.4",
  "updatedAt": "2021-04-12T21:48:59.805Z",
  "devdoc": {
    "kind": "dev",
    "methods": {},
    "version": 1
  },
  "userdoc": {
    "kind": "user",
    "methods": {},
    "version": 1
  }
}