{
  "contractName": "GenesisVisionGateway",
  "abi": [
    {
      "anonymous": false,
      "inputs": [
        {
          "indexed": false,
          "internalType": "uint32",
          "name": "assetId",
          "type": "uint32"
        },
        {
          "indexed": false,
          "internalType": "enum GenesisVisionGateway.AssetType",
          "name": "assetType",
          "type": "uint8"
        }
      ],
      "name": "AssetAdded",
      "type": "event"
    },
    {
      "anonymous": false,
      "inputs": [
        {
          "indexed": false,
          "internalType": "uint32",
          "name": "assetId",
          "type": "uint32"
        }
      ],
      "name": "AssetRemoved",
      "type": "event"
    },
    {
      "anonymous": false,
      "inputs": [
        {
          "indexed": false,
          "internalType": "uint256",
          "name": "requestIndex",
          "type": "uint256"
        },
        {
          "indexed": false,
          "internalType": "enum GenesisVisionGateway.RequestStatus",
          "name": "newStatus",
          "type": "uint8"
        }
      ],
      "name": "InvestRequestNewStatus",
      "type": "event"
    },
    {
      "anonymous": false,
      "inputs": [
        {
          "indexed": true,
          "internalType": "address",
          "name": "previousAdmin",
          "type": "address"
        },
        {
          "indexed": true,
          "internalType": "address",
          "name": "newAdmin",
          "type": "address"
        }
      ],
      "name": "NewAdmin",
      "type": "event"
    },
    {
      "anonymous": false,
      "inputs": [
        {
          "indexed": false,
          "internalType": "uint32",
          "name": "assetId",
          "type": "uint32"
        },
        {
          "indexed": false,
          "internalType": "address",
          "name": "addr",
          "type": "address"
        },
        {
          "indexed": false,
          "internalType": "uint256",
          "name": "amount",
          "type": "uint256"
        },
        {
          "indexed": false,
          "internalType": "uint256",
          "name": "index",
          "type": "uint256"
        }
      ],
      "name": "NewInvestRequest",
      "type": "event"
    },
    {
      "anonymous": false,
      "inputs": [
        {
          "indexed": true,
          "internalType": "address",
          "name": "previousOperator",
          "type": "address"
        },
        {
          "indexed": true,
          "internalType": "address",
          "name": "newOperator",
          "type": "address"
        }
      ],
      "name": "NewOperator",
      "type": "event"
    },
    {
      "anonymous": false,
      "inputs": [
        {
          "indexed": false,
          "internalType": "uint32",
          "name": "assetId",
          "type": "uint32"
        },
        {
          "indexed": false,
          "internalType": "address",
          "name": "addr",
          "type": "address"
        },
        {
          "indexed": false,
          "internalType": "uint8",
          "name": "percent",
          "type": "uint8"
        },
        {
          "indexed": false,
          "internalType": "uint256",
          "name": "index",
          "type": "uint256"
        }
      ],
      "name": "NewWithdrawalRequest",
      "type": "event"
    },
    {
      "inputs": [
        {
          "internalType": "uint32",
          "name": "",
          "type": "uint32"
        }
      ],
      "name": "assets",
      "outputs": [
        {
          "internalType": "uint32",
          "name": "id",
          "type": "uint32"
        },
        {
          "internalType": "enum GenesisVisionGateway.AssetType",
          "name": "assetType",
          "type": "uint8"
        }
      ],
      "stateMutability": "view",
      "type": "function"
    },
    {
      "inputs": [
        {
          "internalType": "address",
          "name": "",
          "type": "address"
        }
      ],
      "name": "availableForWithdrawal",
      "outputs": [
        {
          "internalType": "uint256",
          "name": "",
          "type": "uint256"
        }
      ],
      "stateMutability": "view",
      "type": "function"
    },
    {
      "inputs": [],
      "name": "getAdmin",
      "outputs": [
        {
          "internalType": "address",
          "name": "",
          "type": "address"
        }
      ],
      "stateMutability": "view",
      "type": "function"
    },
    {
      "inputs": [],
      "name": "getOperator",
      "outputs": [
        {
          "internalType": "address",
          "name": "",
          "type": "address"
        }
      ],
      "stateMutability": "view",
      "type": "function"
    },
    {
      "inputs": [
        {
          "internalType": "address",
          "name": "newAdmin",
          "type": "address"
        }
      ],
      "name": "setAdmin",
      "outputs": [],
      "stateMutability": "nonpayable",
      "type": "function"
    },
    {
      "inputs": [
        {
          "internalType": "address",
          "name": "newOperator",
          "type": "address"
        }
      ],
      "name": "setOperator",
      "outputs": [],
      "stateMutability": "nonpayable",
      "type": "function"
    },
    {
      "inputs": [
        {
          "internalType": "uint32",
          "name": "assetId",
          "type": "uint32"
        },
        {
          "internalType": "enum GenesisVisionGateway.AssetType",
          "name": "assetType",
          "type": "uint8"
        }
      ],
      "name": "addAsset",
      "outputs": [],
      "stateMutability": "nonpayable",
      "type": "function"
    },
    {
      "inputs": [
        {
          "internalType": "uint32",
          "name": "assetId",
          "type": "uint32"
        }
      ],
      "name": "removeAsset",
      "outputs": [],
      "stateMutability": "nonpayable",
      "type": "function"
    },
    {
      "inputs": [
        {
          "internalType": "uint32",
          "name": "assetId",
          "type": "uint32"
        }
      ],
      "name": "investRequest",
      "outputs": [],
      "stateMutability": "payable",
      "type": "function"
    },
    {
      "inputs": [
        {
          "internalType": "uint32",
          "name": "fundId",
          "type": "uint32"
        },
        {
          "internalType": "uint8",
          "name": "percent",
          "type": "uint8"
        }
      ],
      "name": "withdrawalRequest",
      "outputs": [],
      "stateMutability": "nonpayable",
      "type": "function"
    },
    {
      "inputs": [
        {
          "internalType": "address",
          "name": "wallet",
          "type": "address"
        }
      ],
      "name": "setWhitelistedWallet",
      "outputs": [],
      "stateMutability": "nonpayable",
      "type": "function"
    },
    {
      "inputs": [
        {
          "internalType": "uint256",
          "name": "amount",
          "type": "uint256"
        },
        {
          "internalType": "address",
          "name": "recipient",
          "type": "address"
        }
      ],
      "name": "withdrawByAdmin",
      "outputs": [],
      "stateMutability": "nonpayable",
      "type": "function"
    },
    {
      "inputs": [
        {
          "internalType": "uint256",
          "name": "amount",
          "type": "uint256"
        }
      ],
      "name": "withdrawByOperator",
      "outputs": [],
      "stateMutability": "nonpayable",
      "type": "function"
    },
    {
      "inputs": [
        {
          "internalType": "uint256",
          "name": "index",
          "type": "uint256"
        }
      ],
      "name": "setInvestRequestStatusProcessed",
      "outputs": [],
      "stateMutability": "nonpayable",
      "type": "function"
    },
    {
      "inputs": [
        {
          "internalType": "uint256",
          "name": "index",
          "type": "uint256"
        }
      ],
      "name": "setInvestRequestStatusCancelled",
      "outputs": [],
      "stateMutability": "nonpayable",
      "type": "function"
    },
    {
      "inputs": [
        {
          "internalType": "uint256",
          "name": "index",
          "type": "uint256"
        },
        {
          "internalType": "uint256",
          "name": "amount",
          "type": "uint256"
        }
      ],
      "name": "setWithdrawalRequestStatusProcessed",
      "outputs": [],
      "stateMutability": "nonpayable",
      "type": "function"
    },
    {
      "inputs": [
        {
          "internalType": "uint256",
          "name": "amount",
          "type": "uint256"
        }
      ],
      "name": "withdraw",
      "outputs": [],
      "stateMutability": "nonpayable",
      "type": "function"
    }
  ],
  "bytecode": "0x608060405234801561001057600080fd5b506000339050806000806101000a81548173ffffffffffffffffffffffffffffffffffffffff021916908373ffffffffffffffffffffffffffffffffffffffff1602179055508073ffffffffffffffffffffffffffffffffffffffff16600073ffffffffffffffffffffffffffffffffffffffff167ff9ffabca9c8276e99321725bcb43fb076a6c66a54b7f21c4e8146d8519b417dc60405160405180910390a350611eff806100c16000396000f3fe6080604052600436106100fe5760003560e01c806365c59e7d11610095578063ae35619111610064578063ae356191146102f8578063b3ab15fb14610321578063df8b2c611461034a578063e7f43c6814610373578063f8a80dc81461039e576100fe565b806365c59e7d1461024b5780636e9960c314610288578063704b6c02146102b357806389253d89146102dc576100fe565b80633b17d5c3116100d15780633b17d5c3146101a7578063416f6254146101d05780634daa280b146101f95780635b8a35f814610222576100fe565b8063109f36f31461010357806325b6e1cc1461012c578063282ba52f146101555780632e1a7d4d1461017e575b600080fd5b34801561010f57600080fd5b5061012a60048036038101906101259190611798565b6103dc565b005b34801561013857600080fd5b50610153600480360381019061014e9190611875565b6104a9565b005b34801561016157600080fd5b5061017c60048036038101906101779190611746565b610680565b005b34801561018a57600080fd5b506101a560048036038101906101a0919061176f565b610739565b005b3480156101b357600080fd5b506101ce60048036038101906101c9919061176f565b610825565b005b3480156101dc57600080fd5b506101f760048036038101906101f29190611810565b6109dc565b005b34801561020557600080fd5b50610220600480360381019061021b919061176f565b610ad8565b005b34801561022e57600080fd5b50610249600480360381019061024491906117d4565b610c8f565b005b34801561025757600080fd5b50610272600480360381019061026d9190611746565b610e99565b60405161027f9190611b3e565b60405180910390f35b34801561029457600080fd5b5061029d610eb1565b6040516102aa9190611aa3565b60405180910390f35b3480156102bf57600080fd5b506102da60048036038101906102d59190611746565b610eda565b005b6102f660048036038101906102f19190611810565b61107c565b005b34801561030457600080fd5b5061031f600480360381019061031a9190611839565b611238565b005b34801561032d57600080fd5b5061034860048036038101906103439190611746565b611383565b005b34801561035657600080fd5b50610371600480360381019061036c919061176f565b611528565b005b34801561037f57600080fd5b50610388611672565b6040516103959190611aa3565b60405180910390f35b3480156103aa57600080fd5b506103c560048036038101906103c09190611810565b61169c565b6040516103d3929190611c27565b60405180910390f35b3373ffffffffffffffffffffffffffffffffffffffff166103fb610eb1565b73ffffffffffffffffffffffffffffffffffffffff1614610451576040517f08c379a000000000000000000000000000000000000000000000000000000000815260040161044890611b1e565b60405180910390fd5b4782111561045e57600080fd5b8073ffffffffffffffffffffffffffffffffffffffff166108fc839081150290604051600060405180830381858888f193505050501580156104a4573d6000803e3d6000fd5b505050565b600060405180608001604052808463ffffffff1681526020013373ffffffffffffffffffffffffffffffffffffffff1681526020018360ff16815260200160006002811115610521577f4e487b7100000000000000000000000000000000000000000000000000000000600052602160045260246000fd5b81525090508060046000600654815260200190815260200160002060008201518160000160006101000a81548163ffffffff021916908363ffffffff16021790555060208201518160000160046101000a81548173ffffffffffffffffffffffffffffffffffffffff021916908373ffffffffffffffffffffffffffffffffffffffff16021790555060408201518160000160186101000a81548160ff021916908360ff16021790555060608201518160000160196101000a81548160ff0219169083600281111561061c577f4e487b7100000000000000000000000000000000000000000000000000000000600052602160045260246000fd5b02179055509050507fc0c2b6a245b29f84429b13195c8e066e83734466fff73536810d33316d0ddad483338460065460405161065b9493929190611be2565b60405180910390a16006600081548092919061067690611d8e565b9190505550505050565b3373ffffffffffffffffffffffffffffffffffffffff1661069f610eb1565b73ffffffffffffffffffffffffffffffffffffffff16146106f5576040517f08c379a00000000000000000000000000000000000000000000000000000000081526004016106ec90611b1e565b60405180910390fd5b80600860006101000a81548173ffffffffffffffffffffffffffffffffffffffff021916908373ffffffffffffffffffffffffffffffffffffffff16021790555050565b600760003373ffffffffffffffffffffffffffffffffffffffff1673ffffffffffffffffffffffffffffffffffffffff1681526020019081526020016000205481111561078557600080fd5b80600760003373ffffffffffffffffffffffffffffffffffffffff1673ffffffffffffffffffffffffffffffffffffffff16815260200190815260200160002060008282546107d49190611cb7565b925050819055503373ffffffffffffffffffffffffffffffffffffffff166108fc829081150290604051600060405180830381858888f19350505050158015610821573d6000803e3d6000fd5b5050565b3373ffffffffffffffffffffffffffffffffffffffff16610844611672565b73ffffffffffffffffffffffffffffffffffffffff161461089a576040517f08c379a000000000000000000000000000000000000000000000000000000000815260040161089190611ade565b60405180910390fd5b600060028111156108d4577f4e487b7100000000000000000000000000000000000000000000000000000000600052602160045260246000fd5b6003600083815260200190815260200160002060020160009054906101000a900460ff166002811115610930577f4e487b7100000000000000000000000000000000000000000000000000000000600052602160045260246000fd5b1461093a57600080fd5b60016003600083815260200190815260200160002060020160006101000a81548160ff0219169083600281111561099a577f4e487b7100000000000000000000000000000000000000000000000000000000600052602160045260246000fd5b02179055507fe3a4fa534c0368abfb513c9d9627b206a055d86f39aff60fa3f3979e01920a6d8160016040516109d1929190611b59565b60405180910390a150565b3373ffffffffffffffffffffffffffffffffffffffff166109fb611672565b73ffffffffffffffffffffffffffffffffffffffff1614610a51576040517f08c379a0000000000000000000000000000000000000000000000000000000008152600401610a4890611ade565b60405180910390fd5b600260008263ffffffff1663ffffffff168152602001908152602001600020600080820160006101000a81549063ffffffff02191690556000820160046101000a81549060ff021916905550507fe5a02d0f1e953224c81747d0dd65bb373857e403e3151ebb7c3aa5a9c669443a81604051610acd9190611b82565b60405180910390a150565b3373ffffffffffffffffffffffffffffffffffffffff16610af7611672565b73ffffffffffffffffffffffffffffffffffffffff1614610b4d576040517f08c379a0000000000000000000000000000000000000000000000000000000008152600401610b4490611ade565b60405180910390fd5b60006002811115610b87577f4e487b7100000000000000000000000000000000000000000000000000000000600052602160045260246000fd5b6003600083815260200190815260200160002060020160009054906101000a900460ff166002811115610be3577f4e487b7100000000000000000000000000000000000000000000000000000000600052602160045260246000fd5b14610bed57600080fd5b60026003600083815260200190815260200160002060020160006101000a81548160ff02191690836002811115610c4d577f4e487b7100000000000000000000000000000000000000000000000000000000600052602160045260246000fd5b02179055507fe3a4fa534c0368abfb513c9d9627b206a055d86f39aff60fa3f3979e01920a6d816002604051610c84929190611b59565b60405180910390a150565b3373ffffffffffffffffffffffffffffffffffffffff16610cae611672565b73ffffffffffffffffffffffffffffffffffffffff1614610d04576040517f08c379a0000000000000000000000000000000000000000000000000000000008152600401610cfb90611ade565b60405180910390fd5b60006002811115610d3e577f4e487b7100000000000000000000000000000000000000000000000000000000600052602160045260246000fd5b6004600084815260200190815260200160002060000160199054906101000a900460ff166002811115610d9a577f4e487b7100000000000000000000000000000000000000000000000000000000600052602160045260246000fd5b14610da457600080fd5b60016004600084815260200190815260200160002060000160196101000a81548160ff02191690836002811115610e04577f4e487b7100000000000000000000000000000000000000000000000000000000600052602160045260246000fd5b021790555080600760006004600086815260200190815260200160002060000160049054906101000a900473ffffffffffffffffffffffffffffffffffffffff1673ffffffffffffffffffffffffffffffffffffffff1673ffffffffffffffffffffffffffffffffffffffff1681526020019081526020016000206000828254610e8e9190611c61565b925050819055505050565b60076020528060005260406000206000915090505481565b60008060009054906101000a900473ffffffffffffffffffffffffffffffffffffffff16905090565b3373ffffffffffffffffffffffffffffffffffffffff16610ef9610eb1565b73ffffffffffffffffffffffffffffffffffffffff1614610f4f576040517f08c379a0000000000000000000000000000000000000000000000000000000008152600401610f4690611b1e565b60405180910390fd5b600073ffffffffffffffffffffffffffffffffffffffff168173ffffffffffffffffffffffffffffffffffffffff161415610fbf576040517f08c379a0000000000000000000000000000000000000000000000000000000008152600401610fb690611afe565b60405180910390fd5b8073ffffffffffffffffffffffffffffffffffffffff1660008054906101000a900473ffffffffffffffffffffffffffffffffffffffff1673ffffffffffffffffffffffffffffffffffffffff167ff9ffabca9c8276e99321725bcb43fb076a6c66a54b7f21c4e8146d8519b417dc60405160405180910390a3806000806101000a81548173ffffffffffffffffffffffffffffffffffffffff021916908373ffffffffffffffffffffffffffffffffffffffff16021790555050565b600060405180608001604052808363ffffffff1681526020013373ffffffffffffffffffffffffffffffffffffffff168152602001348152602001600060028111156110f1577f4e487b7100000000000000000000000000000000000000000000000000000000600052602160045260246000fd5b81525090508060036000600554815260200190815260200160002060008201518160000160006101000a81548163ffffffff021916908363ffffffff16021790555060208201518160000160046101000a81548173ffffffffffffffffffffffffffffffffffffffff021916908373ffffffffffffffffffffffffffffffffffffffff1602179055506040820151816001015560608201518160020160006101000a81548160ff021916908360028111156111d5577f4e487b7100000000000000000000000000000000000000000000000000000000600052602160045260246000fd5b02179055509050507f2b4ffabd2126cb491dd4eb129888617534c562696dcbb1b7d7e89cf8c9b110b68233346005546040516112149493929190611b9d565b60405180910390a16005600081548092919061122f90611d8e565b91905055505050565b3373ffffffffffffffffffffffffffffffffffffffff16611257611672565b73ffffffffffffffffffffffffffffffffffffffff16146112ad576040517f08c379a00000000000000000000000000000000000000000000000000000000081526004016112a490611ade565b60405180910390fd5b6000600260008463ffffffff1663ffffffff1681526020019081526020016000209050828160000160006101000a81548163ffffffff021916908363ffffffff160217905550818160000160046101000a81548160ff02191690836001811115611340577f4e487b7100000000000000000000000000000000000000000000000000000000600052602160045260246000fd5b02179055507fc8d399458f90e45d0181ed22f708f0305dabee8e6282368d7ae0cce6b0e85d3e8383604051611376929190611c27565b60405180910390a1505050565b3373ffffffffffffffffffffffffffffffffffffffff166113a2610eb1565b73ffffffffffffffffffffffffffffffffffffffff16146113f8576040517f08c379a00000000000000000000000000000000000000000000000000000000081526004016113ef90611b1e565b60405180910390fd5b600073ffffffffffffffffffffffffffffffffffffffff168173ffffffffffffffffffffffffffffffffffffffff161415611468576040517f08c379a000000000000000000000000000000000000000000000000000000000815260040161145f90611abe565b60405180910390fd5b8073ffffffffffffffffffffffffffffffffffffffff16600160009054906101000a900473ffffffffffffffffffffffffffffffffffffffff1673ffffffffffffffffffffffffffffffffffffffff167ff1e04d73c4304b5ff164f9d10c7473e2a1593b740674a6107975e2a7001c1e5c60405160405180910390a380600160006101000a81548173ffffffffffffffffffffffffffffffffffffffff021916908373ffffffffffffffffffffffffffffffffffffffff16021790555050565b3373ffffffffffffffffffffffffffffffffffffffff16611547610eb1565b73ffffffffffffffffffffffffffffffffffffffff161461159d576040517f08c379a000000000000000000000000000000000000000000000000000000000815260040161159490611b1e565b60405180910390fd5b478111156115aa57600080fd5b600073ffffffffffffffffffffffffffffffffffffffff16600860009054906101000a900473ffffffffffffffffffffffffffffffffffffffff1673ffffffffffffffffffffffffffffffffffffffff16141561160657600080fd5b600860009054906101000a900473ffffffffffffffffffffffffffffffffffffffff1673ffffffffffffffffffffffffffffffffffffffff166108fc829081150290604051600060405180830381858888f1935050505015801561166e573d6000803e3d6000fd5b5050565b6000600160009054906101000a900473ffffffffffffffffffffffffffffffffffffffff16905090565b60026020528060005260406000206000915090508060000160009054906101000a900463ffffffff16908060000160049054906101000a900460ff16905082565b6000813590506116ec81611e5d565b92915050565b60008135905061170181611e74565b92915050565b60008135905061171681611e84565b92915050565b60008135905061172b81611e9b565b92915050565b60008135905061174081611eb2565b92915050565b60006020828403121561175857600080fd5b6000611766848285016116dd565b91505092915050565b60006020828403121561178157600080fd5b600061178f84828501611707565b91505092915050565b600080604083850312156117ab57600080fd5b60006117b985828601611707565b92505060206117ca858286016116dd565b9150509250929050565b600080604083850312156117e757600080fd5b60006117f585828601611707565b925050602061180685828601611707565b9150509250929050565b60006020828403121561182257600080fd5b60006118308482850161171c565b91505092915050565b6000806040838503121561184c57600080fd5b600061185a8582860161171c565b925050602061186b858286016116f2565b9150509250929050565b6000806040838503121561188857600080fd5b60006118968582860161171c565b92505060206118a785828601611731565b9150509250929050565b6118ba81611ceb565b82525050565b6118c981611d6a565b82525050565b6118d881611d7c565b82525050565b60006118eb603583611c50565b91507f41646d696e4f70657261746f724163636573733a206e6577206f70657261746f60008301527f7220697320746865207a65726f206164647265737300000000000000000000006020830152604082019050919050565b6000611951602f83611c50565b91507f41646d696e4f70657261746f724163636573733a2063616c6c6572206973206e60008301527f6f7420746865206f70657261746f7200000000000000000000000000000000006020830152604082019050919050565b60006119b7603283611c50565b91507f41646d696e4f70657261746f724163636573733a206e65772061646d696e206960008301527f7320746865207a65726f206164647265737300000000000000000000000000006020830152604082019050919050565b6000611a1d602c83611c50565b91507f41646d696e4f70657261746f724163636573733a2063616c6c6572206973206e60008301527f6f74207468652061646d696e00000000000000000000000000000000000000006020830152604082019050919050565b611a7f81611d43565b82525050565b611a8e81611d4d565b82525050565b611a9d81611d5d565b82525050565b6000602082019050611ab860008301846118b1565b92915050565b60006020820190508181036000830152611ad7816118de565b9050919050565b60006020820190508181036000830152611af781611944565b9050919050565b60006020820190508181036000830152611b17816119aa565b9050919050565b60006020820190508181036000830152611b3781611a10565b9050919050565b6000602082019050611b536000830184611a76565b92915050565b6000604082019050611b6e6000830185611a76565b611b7b60208301846118cf565b9392505050565b6000602082019050611b976000830184611a85565b92915050565b6000608082019050611bb26000830187611a85565b611bbf60208301866118b1565b611bcc6040830185611a76565b611bd96060830184611a76565b95945050505050565b6000608082019050611bf76000830187611a85565b611c0460208301866118b1565b611c116040830185611a94565b611c1e6060830184611a76565b95945050505050565b6000604082019050611c3c6000830185611a85565b611c4960208301846118c0565b9392505050565b600082825260208201905092915050565b6000611c6c82611d43565b9150611c7783611d43565b9250827fffffffffffffffffffffffffffffffffffffffffffffffffffffffffffffffff03821115611cac57611cab611dd7565b5b828201905092915050565b6000611cc282611d43565b9150611ccd83611d43565b925082821015611ce057611cdf611dd7565b5b828203905092915050565b6000611cf682611d23565b9050919050565b6000819050611d0b82611e35565b919050565b6000819050611d1e82611e49565b919050565b600073ffffffffffffffffffffffffffffffffffffffff82169050919050565b6000819050919050565b600063ffffffff82169050919050565b600060ff82169050919050565b6000611d7582611cfd565b9050919050565b6000611d8782611d10565b9050919050565b6000611d9982611d43565b91507fffffffffffffffffffffffffffffffffffffffffffffffffffffffffffffffff821415611dcc57611dcb611dd7565b5b600182019050919050565b7f4e487b7100000000000000000000000000000000000000000000000000000000600052601160045260246000fd5b7f4e487b7100000000000000000000000000000000000000000000000000000000600052602160045260246000fd5b60028110611e4657611e45611e06565b5b50565b60038110611e5a57611e59611e06565b5b50565b611e6681611ceb565b8114611e7157600080fd5b50565b60028110611e8157600080fd5b50565b611e8d81611d43565b8114611e9857600080fd5b50565b611ea481611d4d565b8114611eaf57600080fd5b50565b611ebb81611d5d565b8114611ec657600080fd5b5056fea2646970667358221220c02b7bf6751c981e8166b92650059292cbe71607260275abcb2afcbdc24daa0664736f6c63430008000033",
  "immutableReferences": {},
  "source": "/*\r\n    Copyright 2021 Genesis Vision LP.\r\n\r\n    Licensed under the Apache License, Version 2.0 (the \"License\");\r\n    you may not use this file except in compliance with the License.\r\n    You may obtain a copy of the License at\r\n\r\n    http://www.apache.org/licenses/LICENSE-2.0\r\n\r\n    Unless required by applicable law or agreed to in writing, software\r\n    distributed under the License is distributed on an \"AS IS\" BASIS,\r\n    WITHOUT WARRANTIES OR CONDITIONS OF ANY KIND, either express or implied.\r\n    See the License for the specific language governing permissions and\r\n    limitations under the License.\r\n\r\n    SPDX-License-Identifier: Apache-2.0\r\n*/\r\n\r\npragma solidity ^0.8.0;\r\n\r\nimport \"../lib/AdminOperatorAccess.sol\";\r\n\r\ncontract GenesisVisionGateway is AdminOperatorAccess {\r\n\r\n    enum RequestStatus { InProcess, Processed, Cancelled }\r\n    enum AssetType { Program, Fund}\r\n\r\n    struct Asset {\r\n        uint32 id;\r\n        AssetType assetType;\r\n    }\r\n\r\n    struct InvestRequest {\r\n        uint32 assetId;\r\n        address addr;\r\n        uint amount;\r\n        RequestStatus status;\r\n    }\r\n\r\n    struct WithdrawalRequest {\r\n        uint32 assetId;\r\n        address addr;\r\n        uint8 percent;\r\n        RequestStatus status;\r\n    }\r\n\r\n    event AssetAdded(uint32 assetId, AssetType assetType);\r\n    event AssetRemoved(uint32 assetId);\r\n\r\n    event NewInvestRequest(uint32 assetId, address addr, uint amount, uint index);\r\n    event InvestRequestNewStatus(uint requestIndex, RequestStatus newStatus);\r\n\r\n    event NewWithdrawalRequest(uint32 assetId, address addr, uint8 percent, uint index);\r\n\r\n    mapping(uint32 => Asset) public assets;\r\n    mapping(uint => InvestRequest) investRequests;\r\n    mapping(uint => WithdrawalRequest) withdrawalRequests;\r\n\r\n    uint private investRequestIndex;\r\n    uint private withdrawalRequestIndex;\r\n\r\n    mapping(address => uint) public availableForWithdrawal;\r\n\r\n    address payable whitelistedWallet;\r\n\r\n    function addAsset(uint32 assetId, AssetType assetType) external onlyOperator {\r\n        Asset storage newAsset = assets[assetId];\r\n\r\n        newAsset.id = assetId;\r\n        newAsset.assetType = assetType;\r\n\r\n        emit AssetAdded(assetId, assetType);\r\n    }\r\n\r\n    function removeAsset(uint32 assetId) external onlyOperator {\r\n        delete assets[assetId];\r\n\r\n        emit AssetRemoved(assetId);\r\n    }\r\n\r\n    function investRequest(uint32 assetId) public payable {\r\n        InvestRequest memory request = InvestRequest({assetId: assetId, addr: msg.sender, amount: msg.value, status: RequestStatus.InProcess });\r\n        investRequests[investRequestIndex] = request;\r\n        emit NewInvestRequest(assetId, msg.sender, msg.value, investRequestIndex);\r\n        investRequestIndex++;\r\n    }\r\n\r\n    function withdrawalRequest(uint32 fundId, uint8 percent) public {\r\n        WithdrawalRequest memory request = WithdrawalRequest({assetId: fundId, addr: msg.sender, percent: percent, status: RequestStatus.InProcess });\r\n        withdrawalRequests[withdrawalRequestIndex] = request;\r\n        emit NewWithdrawalRequest(fundId, msg.sender, percent, withdrawalRequestIndex);\r\n        withdrawalRequestIndex++;\r\n    }\r\n\r\n    function setWhitelistedWallet(address wallet) public onlyAdmin {\r\n        whitelistedWallet = payable(wallet);\r\n    }\r\n\r\n    function withdrawByAdmin(uint256 amount, address recipient) public onlyAdmin {\r\n        require(amount <= address(this).balance);\r\n        payable(recipient).transfer(amount);\r\n    }\r\n\r\n    function withdrawByOperator(uint256 amount) public onlyAdmin {\r\n        require(amount <= address(this).balance);\r\n        require(whitelistedWallet != address(0));\r\n        whitelistedWallet.transfer(amount);\r\n    }\r\n\r\n    function setInvestRequestStatusProcessed(uint index) external onlyOperator {\r\n        require(investRequests[index].status == RequestStatus.InProcess);\r\n        investRequests[index].status = RequestStatus.Processed;\r\n        emit InvestRequestNewStatus(index, RequestStatus.Processed);\r\n    }\r\n    function setInvestRequestStatusCancelled(uint index) external onlyOperator {\r\n        require(investRequests[index].status == RequestStatus.InProcess);\r\n        investRequests[index].status = RequestStatus.Cancelled;\r\n        emit InvestRequestNewStatus(index, RequestStatus.Cancelled);\r\n    }\r\n\r\n    function setWithdrawalRequestStatusProcessed(uint index, uint amount) external onlyOperator {\r\n        require(withdrawalRequests[index].status == RequestStatus.InProcess);\r\n        withdrawalRequests[index].status = RequestStatus.Processed;\r\n        availableForWithdrawal[withdrawalRequests[index].addr] += amount;\r\n    }\r\n\r\n    function withdraw(uint amount) external {\r\n        require(amount <= availableForWithdrawal[msg.sender]);\r\n        availableForWithdrawal[msg.sender] -= amount;\r\n        payable(msg.sender).transfer(amount);\r\n    }\r\n}",
  "sourcePath": "C:/projects/genesis-vision-core/contracts/gateway/GenesisVisionGateway.sol",
  "compiler": {
    "name": "solc",
    "version": "0.8.0+commit.c7dfd78e.Emscripten.clang"
  },
  "schemaVersion": "3.3.4",
  "updatedAt": "2021-04-16T00:11:00.945Z",
  "devdoc": {
    "kind": "dev",
    "methods": {},
    "version": 1
  },
  "userdoc": {
    "kind": "user",
    "methods": {},
    "version": 1
  }
}